:020000020000FC
:0200000045C0F9
:10008C000FEF0DBF00E10EBF2224A0E0B1E0C2E0F3
:10009C00D1E085E68D9385E68C9385E68E9388E09A
:1000AC00899385E6888385E68A9315D0A0E0B1E034
:1000BC00F1E0E3E1222481918D9381918D938191E3
:1000CC008C93E3E0F1E0222421922192219221925F
:1000DC00219225D0FFCF3F924F922F92BF93AF9397
:1000EC00DF93CF93FF93EF93B1E0A0E0D1E0C2E0B8
:1000FC00F1E0E3E13D904990340C31923C90488022
:10010C00341C31922224221C2082EF91FF91CF913A
:10011C00DF91AF91BF912F904F903F9008953F92F8
:10012C004F921F920F922F92BF93AF93DF93CF9367
:10013C00FF93EF931F932F932224D1E0C0E0E4E0D0
:10014C00F1E013E0B1E0A0E023E03D904880349C66
:10015C0031904190030C141C3080321C308212926E
:10016C00029231962A9589F7329721961A9551F772
:10017C002F911F91EF91FF91CF91DF91AF91BF9193
:10018C002F900F901F904F903F90089508953F929D
:10019C004F921F920F922F92BF93AF93DF93CF93F7
:1001AC00FF93EF931F932F932224D1E0C2E0E4E05E
:1001BC00F1E012E0B1E0A0E022E03D904880349CF8
:1001CC0031904190030C141C3080321C30821292FE
:1001DC00029231962A9589F7319721961A9551F703
:1001EC002F911F91EF91FF91CF91DF91AF91BF9123
:0E01FC002F900F901F904F903F900895089500
:00000001FF
