:020000020000FC
:0200000045C0F9
:0800040068D0189577D018951B
:0400780059D01895AE
:10008C000FEF0DBF00E10EBF00EF07BB00E608BB92
:10009C0007E002BB00E001BB02E000939B0003E021
:1000AC000093980000E40093990000E900939A00F3
:1000BC000EE200939D0003E009BF00E000936A008C
:1000CC000AE000933A007894FFCF0F931F930FB779
:1000DC000F9300E008BB14E61AD000E208BB14E64C
:1000EC0016D00F910FBF1F910F9108950F931F936F
:1000FC000FB70F9300E008BB14E609D000E408BB6F
:10010C0014E605D00F910FBF1F910F91089530EE9B
:10011C002DEE2A95F1F73A95D9F71A95C1F708956E
:10012C000F930FB70F9300919B0002FD0C94D0001E
:10013C0010919C005F3F41F0193019F055270C9439
:10014C00D0005FEF0C94D00010919C00103861F03F
:10015C00103B71F0103A81F0103991F0183CA1F07D
:10016C00183FB1F00C94D00000E008BB0C94D00008
:10017C0000E608BB0C94D00000E408BB0C94D00043
:10018C0000E208BB0C94D00000E908BB0C94D00032
:0C019C000C94D0000F910FBF0F9108953C
:00000001FF
