:020000020000FC
:0200000045C0F9
:080004008FD018959ED01895CD
:0400780084D0189583
:040080004BD01895B4
:10008C000FEF0DBF00E10EBF00EF07BB00E608BB92
:10009C0007E002BB00E001BB02E000939B0003E021
:1000AC000093980000E40093990008E900939A00EB
:1000BC000EE200939D0003E009BF00E000936A008C
:1000CC000AE000933A00789460E0813051F063309C
:1000DC0009F0FBCF002709BF00939A0000E908BB89
:1000EC00F9CF08E400939A0080919B0085FFF9CF2B
:1000FC001F9315E510939C001F918827F89418EC1A
:10010C0000E908BB2BD078940C946B000F9308E992
:10011C0000939A000F9108950F931F930FB70F93AD
:10012C0000E008BB14E61AD000E208BB14E616D0B7
:10013C000F910FBF1F910F9108950F931F930FB73E
:10014C000F9300E008BB14E609D000E408BB14E6EA
:10015C0005D00F910FBF1F910F9108953F932F93CF
:10016C0030EE2DEE2A95F1F73A95D9F71A95C1F79D
:10017C002F913F9108950F930FB70F931F930091F9
:10018C009B0002FD0C94030110919C001535D1F1DC
:10019C00913041F0193019F099270C94030191E03A
:1001AC000C9403019927103861F0103B79F0103A48
:1001BC0091F01039A9F0183CC1F0183FD9F00C940B
:1001CC00030100E008BB502F0C94030100E608BBB0
:1001DC00502F0C94030100E408BB502F0C94030126
:1001EC0000E208BB502F0C94030100E908BB502F10
:1001FC000C94030181E00C9403011F910F910FBF2C
:10020C000F9108950F9300E963950F910C940301DE
:00000001FF
