:1000000012C01FC01EC037C01CC01BC01BC019C0FF
:1000100018C017C016C015C014C013C012C011C03C
:1000200010C00FC00EC011241FBECFEDCDBF10E019
:10003000A0E6B0E001C01D92A736B107E1F7B7D046
:1000400046C3DECF1F920F920FB60F9211248F93EB
:100050009F938CEE82BF8091600090916100019629
:1000600090936100809360009F918F910F900FBEDD
:100070000F901F9018951F920F920FB60F92112498
:100080008F939F9388B390E4892788BB1EBC9F9170
:100090008F910F900FBE0F901F9018958CEF8ABB19
:1000A00088E487BB8FEF8BBB88BB0895982F823382
:1000B00010F48CE3089582538D3210F48FE3089589
:1000C000892F8F558E3110F487E40895892F8D572D
:1000D0008E3110F480E50895892F8B59893110F401
:1000E00089E50895892F845B843110F48FE50895A4
:1000F000985C963110F087E708958AE6089510928B
:1001000061001092600001C0A5D120916000309183
:100110006100609162007091630083EE96E1C3D24A
:100120002617370788F30895109261001092600037
:100130008BD101C08BD12091600030916100609122
:1001400062007091630083EE96E1ADD22617370707
:1001500088F380D10895109261001092600001C070
:1001600079D12091600030916100609162007091BE
:10017000630087EC9DE297D22617370788F308952E
:1001800010926100109260005FD101C05FD1209198
:10019000600030916100609162007091630087ECB3
:1001A0009DE281D22617370788F354D10895CF9363
:1001B000DF938CEF8ABB88E487BB8FEF8BBB88BB58
:1001C00088E390E066E02DD187E287B982EE86B9B8
:1001D0007894C2E8D0E0B5996FC0D0936300C09323
:1001E00062008FE3A1DF8AE69FDF80E59DDF8FE37A
:1001F0009BDF8CE399DF89E597DF87E495DF8FE369
:10020000BFDF80E591DF8FE38FDF85E38DDF82E362
:100210008BDF80E589DF85E387DF8CE385DF8FE394
:1002200083DF8AE681DF80E57FDF8FE37DDF8CE39C
:100230007BDF89E579DF87E477DF8FE3A1DF80E586
:1002400073DF8FE371DF85E36FDF82E36DDF80E5CE
:100250006BDF85E369DF8CE367DF8FE365DF8AE6C9
:1002600063DF80E561DF8FE35FDF8CE35DDF89E5DE
:100270005BDF87E459DF8FE383DF80E555DF8FE3C2
:1002800053DF85E351DF82E34FDF80E54DDF85E318
:100290004BDF8CE349DF8FE347DF8AE645DF80E50C
:1002A00043DF8FE341DF87E43FDF87E73DDF89E519
:1002B0003BDF80E565DF8FCF85B18A3F28F485B1CC
:1002C000F5DEC2D0C3D087CFC5D085CF97B1907EA1
:1002D00097B997B18F71892B87B90895813011F43F
:1002E0003D9A08953D98089596B1987F96B996B134
:1002F0008770892B86B90895882329F0359A83B1B0
:10030000887F83B908953598089597B19F7397B9F9
:1003100097B1807C892B87B9369A349BFECF349A6B
:100320000895339A089533980895379A0895379821
:100330000895369A0895349A089586B190E024E09D
:10034000969587952A95E1F78170089596B1987FE3
:1003500096B996B18770892B86B9862FCDDF08951F
:1003600097B1907E97B997B18F71892B87B93D9AD4
:10037000369A349BFECF349A85B10895FF920F933D
:100380001F93CF93DF93F82E062F10E0C0E0D0E04C
:1003900005C08F2DE5DFC80FD11D1F5F1017C8F3F3
:1003A000CE01602F70E07FD1862FDF91CF911F911A
:1003B0000F91FF90089597B1907E97B997B18F7183
:1003C000892B87B93D98369A349BFECF349A24B155
:1003D00035B1C9010895FF920F931F93CF93DF9317
:1003E000F82E062F10E0C0E0D0E005C08F2DE3DF2F
:1003F000C80FD91F1F5F1017C8F3CE01602F70E020
:1004000052D1CB01DF91CF911F910F91FF900895B1
:10041000FB01942F9823409580818423892B80832E
:10042000089524E023BF10BE25E02FBD12BE1EBCE0
:1004300029B7226429BF20E52DBD909365008093E4
:1004400064006093660008958DBD089589B7806447
:1004500089BF089589B78F7B89BFE0916400F091CF
:10046000650081E090E00090660002C0880F991F4F
:100470000A94E2F7809520812823208308958FE253
:1004800053DE8FE251DE3BDE8FE24EDE38DE8CE360
:100490004BDE8FE249DE33DE08958CE345DE8CE3EC
:1004A00043DE2DDE8CE340DE2ADE8CE33DDE85E399
:1004B0003BDE8FE239DE08958CE336DE8CE334DEFA
:1004C0001EDE8CE331DE1BDE8CE32EDE85E32CDECC
:1004D00016DE089514DE8BE427DE87E425DE8CE348
:1004E00023DE0DDE87E420DE8CE31EDE85E31CDEEA
:1004F000089505DE8BE418DE87E416DE8CE314DE57
:10050000FEDD87E411DE8CE30FDE85E30DDE08956A
:1005100080E50ADEF4DD8FE207DEF1DD87E204DE4E
:10052000EEDD83E201DEEBDD8CE2FEDD87E2FCDD69
:10053000089587E4F9DDE3DD8FE3F6DDE0DD83E4B4
:10054000F3DD87E4F1DDDBDD08958FE2EDDD8FE2A1
:10055000EBDDD5DD8FE2E8DDD2DD8CE3E5DD8FE29A
:10056000E3DDCDDD089587E2DFDDC9DDF4DD80E583
:10057000DBDDC5DDF0DD0895EEDDEDDDECDDEBDD91
:1005800008958FE2D1DD8CE3CFDDB9DD87E4CCDDEA
:1005900080E5CADDB4DDDFDD08958CE3C5DDAFDDC8
:1005A000DADDD9DDD8DD0895D6DD82E3BDDDD3DD2A
:1005B00085E3BADDD0DD0895CEDD87E2B5DD8AE2E0
:1005C000B3DD8CE2B1DD82E3AFDD99DD8FE2ACDD3E
:1005D000089595DD8DE1A8DD92DD8DE1A5DD8DE14C
:1005E000A3DD8DDDB8DD0895B6DD87E29DDD8AE20D
:1005F0009BDD8CE299DD82E397DD81DD8FE294DD86
:100600000895A9DD87E290DD8AE28EDD8CE28CDD43
:1006100082E38ADD74DD8FE287DD089570DD8FE28D
:1006200083DD6DDD8CE380DD85E37EDD8FE37CDDC6
:1006300092DD08958CE378DD8EDD80E575DD8BDD60
:100640008FE572DD5CDD089587E26EDD58DD83DDC8
:1006500080E56ADD54DD7FDD089551DD85E364DDED
:100660004EDD85E361DD85E35FDD75DD82E35CDD25
:1006700046DD82E359DD82E357DD6DDD8FE254DD37
:100680003EDD8FE251DD8FE24FDD39DD8CE24CDD66
:1006900036DD8CE275DD8CE273DD8CE271DD8CE29F
:1006A0006FDD59DD0895AA1BBB1B51E107C0AA1FCE
:1006B000BB1FA617B70710F0A61BB70B881F991F03
:1006C0005A95A9F780959095BC01CD010895F894AD
:0206D000FFCF5A
:00000001FF
